{
  "contractName": "HTAContract",
  "abi": [
    {
      "inputs": [],
      "payable": false,
      "stateMutability": "nonpayable",
      "type": "constructor"
    },
    {
      "constant": true,
      "inputs": [],
      "name": "viewHTAContract",
      "outputs": [
        {
          "name": "",
          "type": "string"
        },
        {
          "name": "",
          "type": "string"
        },
        {
          "name": "",
          "type": "bool"
        },
        {
          "name": "",
          "type": "bool"
        },
        {
          "name": "",
          "type": "uint256"
        }
      ],
      "payable": false,
      "stateMutability": "view",
      "type": "function"
    },
    {
      "constant": true,
      "inputs": [],
      "name": "viewAproval",
      "outputs": [
        {
          "name": "",
          "type": "bool"
        }
      ],
      "payable": false,
      "stateMutability": "view",
      "type": "function"
    },
    {
      "constant": false,
      "inputs": [
        {
          "name": "pPayFlag",
          "type": "bool"
        },
        {
          "name": "pFees",
          "type": "uint256"
        }
      ],
      "name": "setPayFlag",
      "outputs": [],
      "payable": false,
      "stateMutability": "nonpayable",
      "type": "function"
    },
    {
      "constant": false,
      "inputs": [
        {
          "name": "pApprovalFlag",
          "type": "bool"
        }
      ],
      "name": "setApprovalFlag",
      "outputs": [],
      "payable": false,
      "stateMutability": "nonpayable",
      "type": "function"
    }
  ],
  "bytecode": "0x6060604052341561000f57600080fd5b6040805190810160405280600b81526020017f53756269722047686f73680000000000000000000000000000000000000000008152506000908051906020019061005a9291906100ea565b506040805190810160405280600981526020017f494e495449415445440000000000000000000000000000000000000000000000815250600190805190602001906100a69291906100ea565b506000600260006101000a81548160ff0219169083151502179055506000600260016101000a81548160ff021916908315150217905550600060038190555061018f565b828054600181600116156101000203166002900490600052602060002090601f016020900481019282601f1061012b57805160ff1916838001178555610159565b82800160010185558215610159579182015b8281111561015857825182559160200191906001019061013d565b5b509050610166919061016a565b5090565b61018c91905b80821115610188576000816000905550600101610170565b5090565b90565b6104528061019e6000396000f300606060405260043610610062576000357c0100000000000000000000000000000000000000000000000000000000900463ffffffff16806357c159d614610067578063ccaa99d01461008c578063d4fab26b146100b9578063d7e24511146100e7575b600080fd5b341561007257600080fd5b61008a600480803515159060200190919050506101fe565b005b341561009757600080fd5b61009f61021b565b604051808215151515815260200191505060405180910390f35b34156100c457600080fd5b6100e560048080351515906020019091908035906020019091905050610269565b005b34156100f257600080fd5b6100fa61028e565b6040518080602001806020018615151515815260200185151515158152602001848152602001838103835288818151815260200191508051906020019080838360005b8381101561015857808201518184015260208101905061013d565b50505050905090810190601f1680156101855780820380516001836020036101000a031916815260200191505b50838103825287818151815260200191508051906020019080838360005b838110156101be5780820151818401526020810190506101a3565b50505050905090810190601f1680156101eb5780820380516001836020036101000a031916815260200191505b5097505050505050505060405180910390f35b80600260016101000a81548160ff02191690831515021790555050565b600060011515600260009054906101000a900460ff161515148015610253575060011515600260019054906101000a900460ff161515145b156102615760019050610266565b600090505b90565b81600260006101000a81548160ff021916908315150217905550806003819055505050565b610296610412565b61029e610412565b6000806000806001600260009054906101000a900460ff16600260019054906101000a900460ff16600354848054600181600116156101000203166002900480601f01602080910402602001604051908101604052809291908181526020018280546001816001161561010002031660029004801561035e5780601f106103335761010080835404028352916020019161035e565b820191906000526020600020905b81548152906001019060200180831161034157829003601f168201915b50505050509450838054600181600116156101000203166002900480601f0160208091040260200160405190810160405280929190818152602001828054600181600116156101000203166002900480156103fa5780601f106103cf576101008083540402835291602001916103fa565b820191906000526020600020905b8154815290600101906020018083116103dd57829003601f168201915b50505050509350945094509450945094509091929394565b6020604051908101604052806000815250905600a165627a7a7230582081a339315abb80a5b18b90f82787ce3b70795353f13cb2cb7d422d1dd8b87e210029",
  "source": "pragma solidity ^0.4.18;\n\ncontract HTAContract {\n    // title & status\n    string studentName;\n    string status;   // INITIATED, REGISTERED, ATTENDANCE CLEARED, APPROVED\n    bool payFlag;\n    bool approvalFlag;\n    uint fees;  \n\n\n    // constructor\n    //function ContractLG(string _title, string _status, string _commdate, string _tenure, string _warranty, string _eyaddress, string _partyaddress, string _contdesc) public {\n    function HTAContract() public {\n        studentName = \"Subir Ghosh\";\n        status = \"INITIATED\";\n        payFlag = false;\n        approvalFlag = false;\n        fees = 0;\n    }\n\n    // view contract\n    function viewHTAContract() public view returns (string, string, bool, bool, uint) {\n        return (studentName, status, payFlag, approvalFlag, fees);\n    }\n\n    //view approval for student\n    function viewAproval() public view returns (bool) {\n        if (payFlag == true && approvalFlag == true) {\n            return true;\n        }\n        else {\n            return false;\n        }\n    }\n\n    // set payment flag\n    function setPayFlag(bool pPayFlag, uint pFees) public {\n        payFlag = pPayFlag;\n        fees = pFees;\n    }\n\n    // set approval flag\n    function setApprovalFlag(bool pApprovalFlag) public {\n        approvalFlag = pApprovalFlag;\n    }\n}",
  "sourcePath": "/Users/subir/truffle/HTAContract/contracts/HTAContract.sol",
  "compiler": {
    "name": "solc",
    "version": "0.4.19+commit.c4cbbb05.Emscripten.clang"
  },
  "schemaVersion": "2.0.0",
  "updatedAt": "2018-04-02T18:37:32.091Z"
}